{
  "address": "0x56593B957dD67D9fA64d443d03FB9efe33d6B7fc",
  "abi": [
    {
      "inputs": [
        {
          "internalType": "address",
          "name": "_automate",
          "type": "address"
        },
        {
          "internalType": "address",
          "name": "_trustedSigner",
          "type": "address"
        }
      ],
      "stateMutability": "nonpayable",
      "type": "constructor"
    },
    {
      "inputs": [],
      "name": "ECDSAInvalidSignature",
      "type": "error"
    },
    {
      "inputs": [
        {
          "internalType": "uint256",
          "name": "length",
          "type": "uint256"
        }
      ],
      "name": "ECDSAInvalidSignatureLength",
      "type": "error"
    },
    {
      "inputs": [
        {
          "internalType": "bytes32",
          "name": "s",
          "type": "bytes32"
        }
      ],
      "name": "ECDSAInvalidSignatureS",
      "type": "error"
    },
    {
      "anonymous": false,
      "inputs": [
        {
          "indexed": false,
          "internalType": "bytes32",
          "name": "taskId",
          "type": "bytes32"
        }
      ],
      "name": "CounterTaskCreated",
      "type": "event"
    },
    {
      "inputs": [],
      "name": "INTERVAL",
      "outputs": [
        {
          "internalType": "uint256",
          "name": "",
          "type": "uint256"
        }
      ],
      "stateMutability": "view",
      "type": "function"
    },
    {
      "inputs": [],
      "name": "MAX_COUNT",
      "outputs": [
        {
          "internalType": "uint256",
          "name": "",
          "type": "uint256"
        }
      ],
      "stateMutability": "view",
      "type": "function"
    },
    {
      "inputs": [],
      "name": "automate",
      "outputs": [
        {
          "internalType": "contract IAutomate",
          "name": "",
          "type": "address"
        }
      ],
      "stateMutability": "view",
      "type": "function"
    },
    {
      "inputs": [],
      "name": "cancelTask",
      "outputs": [],
      "stateMutability": "nonpayable",
      "type": "function"
    },
    {
      "inputs": [],
      "name": "count",
      "outputs": [
        {
          "internalType": "uint256",
          "name": "",
          "type": "uint256"
        }
      ],
      "stateMutability": "view",
      "type": "function"
    },
    {
      "inputs": [
        {
          "internalType": "string",
          "name": "_web3FunctionHash",
          "type": "string"
        },
        {
          "internalType": "bytes",
          "name": "_web3FunctionArgsHex",
          "type": "bytes"
        }
      ],
      "name": "createTask",
      "outputs": [],
      "stateMutability": "nonpayable",
      "type": "function"
    },
    {
      "inputs": [],
      "name": "dedicatedMsgSender",
      "outputs": [
        {
          "internalType": "address",
          "name": "",
          "type": "address"
        }
      ],
      "stateMutability": "view",
      "type": "function"
    },
    {
      "inputs": [
        {
          "internalType": "uint256",
          "name": "_amount",
          "type": "uint256"
        },
        {
          "internalType": "address",
          "name": "_token",
          "type": "address"
        }
      ],
      "name": "depositFunds",
      "outputs": [],
      "stateMutability": "payable",
      "type": "function"
    },
    {
      "inputs": [],
      "name": "gelato1Balance",
      "outputs": [
        {
          "internalType": "contract IGelato1Balance",
          "name": "",
          "type": "address"
        }
      ],
      "stateMutability": "view",
      "type": "function"
    },
    {
      "inputs": [
        {
          "internalType": "uint256",
          "name": "_amount",
          "type": "uint256"
        }
      ],
      "name": "increaseCount",
      "outputs": [],
      "stateMutability": "nonpayable",
      "type": "function"
    },
    {
      "inputs": [
        {
          "internalType": "bytes32",
          "name": "hash",
          "type": "bytes32"
        },
        {
          "internalType": "bytes",
          "name": "signature",
          "type": "bytes"
        }
      ],
      "name": "isValidSignature",
      "outputs": [
        {
          "internalType": "bytes4",
          "name": "",
          "type": "bytes4"
        }
      ],
      "stateMutability": "view",
      "type": "function"
    },
    {
      "inputs": [],
      "name": "lastExecuted",
      "outputs": [
        {
          "internalType": "uint256",
          "name": "",
          "type": "uint256"
        }
      ],
      "stateMutability": "view",
      "type": "function"
    },
    {
      "inputs": [
        {
          "internalType": "bytes4",
          "name": "interfaceId",
          "type": "bytes4"
        }
      ],
      "name": "supportsInterface",
      "outputs": [
        {
          "internalType": "bool",
          "name": "",
          "type": "bool"
        }
      ],
      "stateMutability": "view",
      "type": "function"
    },
    {
      "inputs": [],
      "name": "taskId",
      "outputs": [
        {
          "internalType": "bytes32",
          "name": "",
          "type": "bytes32"
        }
      ],
      "stateMutability": "view",
      "type": "function"
    },
    {
      "inputs": [],
      "name": "trustedSigner",
      "outputs": [
        {
          "internalType": "address",
          "name": "",
          "type": "address"
        }
      ],
      "stateMutability": "view",
      "type": "function"
    }
  ],
  "transactionHash": "0x0552b31397477cd39c8cc9284439575a686bcf247c55a39386f4e574d1d26efd",
  "args": [
    "0x2A6C106ae13B558BB9E2Ec64Bd2f1f7BEFF3A5E0",
    "0x23e359eCAB56210f4b8B559218C4d27A85b052b8"
  ],
  "numDeployments": 2,
  "solcInputHash": "fa7fa6c4c305d169d4e9dbe27daee5fa",
  "bytecode": "0x60e06040523480156200001157600080fd5b50604051620027da380380620027da8339818101604052810190620000379190620003ef565b8180308173ffffffffffffffffffffffffffffffffffffffff1660808173ffffffffffffffffffffffffffffffffffffffff168152505060008273ffffffffffffffffffffffffffffffffffffffff1663573ea5756040518163ffffffff1660e01b8152600401602060405180830381865afa158015620000bc573d6000803e3d6000fd5b505050506040513d601f19601f82011682018060405250810190620000e291906200047b565b90508073ffffffffffffffffffffffffffffffffffffffff1663c415b95c6040518163ffffffff1660e01b8152600401602060405180830381865afa15801562000130573d6000803e3d6000fd5b505050506040513d601f19601f82011682018060405250810190620001569190620004ad565b73ffffffffffffffffffffffffffffffffffffffff1660c08173ffffffffffffffffffffffffffffffffffffffff168152505060008373ffffffffffffffffffffffffffffffffffffffff1663cd3d4fb960026040518263ffffffff1660e01b8152600401620001c791906200055f565b602060405180830381865afa158015620001e5573d6000803e3d6000fd5b505050506040513d601f19601f820116820180604052508101906200020b9190620004ad565b905060008173ffffffffffffffffffffffffffffffffffffffff1663ba1d0ff46040518163ffffffff1660e01b8152600401602060405180830381865afa1580156200025b573d6000803e3d6000fd5b505050506040513d601f19601f82011682018060405250810190620002819190620004ad565b90508073ffffffffffffffffffffffffffffffffffffffff1663ded89a7c856040518263ffffffff1660e01b8152600401620002be91906200058d565b6040805180830381865afa158015620002db573d6000803e3d6000fd5b505050506040513d601f19601f82011682018060405250810190620003019190620005e7565b508073ffffffffffffffffffffffffffffffffffffffff1660a09073ffffffffffffffffffffffffffffffffffffffff168152505050505050505080600360006101000a81548173ffffffffffffffffffffffffffffffffffffffff021916908373ffffffffffffffffffffffffffffffffffffffff16021790555050506200062e565b600080fd5b600073ffffffffffffffffffffffffffffffffffffffff82169050919050565b6000620003b7826200038a565b9050919050565b620003c981620003aa565b8114620003d557600080fd5b50565b600081519050620003e981620003be565b92915050565b6000806040838503121562000409576200040862000385565b5b60006200041985828601620003d8565b92505060206200042c85828601620003d8565b9150509250929050565b600062000443826200038a565b9050919050565b620004558162000436565b81146200046157600080fd5b50565b60008151905062000475816200044a565b92915050565b60006020828403121562000494576200049362000385565b5b6000620004a48482850162000464565b91505092915050565b600060208284031215620004c657620004c562000385565b5b6000620004d684828501620003d8565b91505092915050565b7f4e487b7100000000000000000000000000000000000000000000000000000000600052602160045260246000fd5b60068110620005225762000521620004df565b5b50565b600081905062000535826200050e565b919050565b6000620005478262000525565b9050919050565b62000559816200053a565b82525050565b60006020820190506200057660008301846200054e565b92915050565b6200058781620003aa565b82525050565b6000602082019050620005a460008301846200057c565b92915050565b60008115159050919050565b620005c181620005aa565b8114620005cd57600080fd5b50565b600081519050620005e181620005b6565b92915050565b6000806040838503121562000601576200060062000385565b5b60006200061185828601620003d8565b92505060206200062485828601620005d0565b9150509250929050565b60805160a05160c05161216a6200067060003960005050600081816104a101526104cb0152600081816103eb01528181610a730152610b9a015261216a6000f3fe6080604052600436106100e85760003560e01c806346d4adf21161008a57806389facb201161005957806389facb20146102e6578063f74d548014610311578063f785de231461033c578063f7d9ae7314610358576100e8565b806346d4adf21461023e57806357fb1d671461026757806377163c1d146102925780638136659f146102bd576100e8565b80631626ba7e116100c65780631626ba7e146101805780631c15ff77146101bd57806328f150eb146101e85780633322b23d14610213576100e8565b806301ffc9a7146100ed578063049aacfe1461012a57806306661abd14610155575b600080fd5b3480156100f957600080fd5b50610114600480360381019061010f919061121d565b61036f565b6040516101219190611265565b60405180910390f35b34801561013657600080fd5b5061013f6103e9565b60405161014c91906112ff565b60405180910390f35b34801561016157600080fd5b5061016a61040d565b6040516101779190611333565b60405180910390f35b34801561018c57600080fd5b506101a760048036038101906101a291906114ca565b610413565b6040516101b49190611535565b60405180910390f35b3480156101c957600080fd5b506101d2610499565b6040516101df9190611333565b60405180910390f35b3480156101f457600080fd5b506101fd61049f565b60405161020a9190611571565b60405180910390f35b34801561021f57600080fd5b506102286104c3565b604051610235919061159b565b60405180910390f35b34801561024a57600080fd5b50610265600480360381019061026091906115e2565b6104c9565b005b34801561027357600080fd5b5061027c6105ac565b6040516102899190611630565b60405180910390f35b34801561029e57600080fd5b506102a76105c4565b6040516102b49190611333565b60405180910390f35b3480156102c957600080fd5b506102e460048036038101906102df919061174c565b6105c9565b005b3480156102f257600080fd5b506102fb61094a565b6040516103089190611333565b60405180910390f35b34801561031d57600080fd5b50610326610951565b6040516103339190611571565b60405180910390f35b610356600480360381019061035191906117f4565b610977565b005b34801561036457600080fd5b5061036d610986565b005b60007f1626ba7e000000000000000000000000000000000000000000000000000000007bffffffffffffffffffffffffffffffffffffffffffffffffffffffff1916827bffffffffffffffffffffffffffffffffffffffffffffffffffffffff191614806103e257506103e1826109db565b5b9050919050565b7f000000000000000000000000000000000000000000000000000000000000000081565b60005481565b6000806104208484610a45565b9050600360009054906101000a900473ffffffffffffffffffffffffffffffffffffffff1673ffffffffffffffffffffffffffffffffffffffff168173ffffffffffffffffffffffffffffffffffffffff160361048757631626ba7e60e01b915050610493565b63ffffffff60e01b9150505b92915050565b60015481565b7f000000000000000000000000000000000000000000000000000000000000000081565b60025481565b7f000000000000000000000000000000000000000000000000000000000000000073ffffffffffffffffffffffffffffffffffffffff163373ffffffffffffffffffffffffffffffffffffffff1614610557576040517f08c379a000000000000000000000000000000000000000000000000000000000815260040161054e90611891565b60405180910390fd5b60008160005461056791906118e0565b9050600581106105885761057c600254610a71565b600080819055506105a8565b8160008082825461059991906118e0565b92505081905550426001819055505b5050565b737506c12a824d73d9b08564d5afc22c949434755e81565b600581565b600080191660025414610611576040517f08c379a000000000000000000000000000000000000000000000000000000000815260040161060890611960565b60405180910390fd5b60003073ffffffffffffffffffffffffffffffffffffffff166346d4adf2600160405160240161064191906119bb565b604051602081830303815290604052915060e01b6020820180517bffffffffffffffffffffffffffffffffffffffffffffffffffffffff8381831617835250505050905060006040518060400160405280600367ffffffffffffffff8111156106ad576106ac61139f565b5b6040519080825280602002602001820160405280156106db5781602001602082028036833780820191505090505b508152602001600367ffffffffffffffff8111156106fc576106fb61139f565b5b60405190808252806020026020018201604052801561072f57816020015b606081526020019060019003908161071a5790505b5081525090506002816000015160008151811061074f5761074e6119d6565b5b6020026020010190600581111561076957610768611a05565b5b9081600581111561077d5761077c611a05565b5b815250506004816000015160018151811061079b5761079a6119d6565b5b602002602001019060058111156107b5576107b4611a05565b5b908160058111156107c9576107c8611a05565b5b81525050600581600001516002815181106107e7576107e66119d6565b5b6020026020010190600581111561080157610800611a05565b5b9081600581111561081557610814611a05565b5b81525050610821610aff565b8160200151600081518110610839576108386119d6565b5b60200260200101819052506108928585858080601f016020809104026020016040519081016040528093929190818152602001838380828437600081840152601f19601f82011690508083019250505050505050610b16565b81602001516001815181106108aa576108a96119d6565b5b60200260200101819052506108d062124f80426108c791906118e0565b62124f80610b42565b81602001516002815181106108e8576108e76119d6565b5b602002602001018190525060006109023084846000610b96565b9050806002819055507fa585557108354aa3685e5fe0424ad88ab5bcabc78119a3d599ae901ccb1999938160405161093a919061159b565b60405180910390a1505050505050565b62124f8081565b600360009054906101000a900473ffffffffffffffffffffffffffffffffffffffff1681565b610982828230610c44565b5050565b6000801916600254036109ce576040517f08c379a00000000000000000000000000000000000000000000000000000000081526004016109c590611a80565b60405180910390fd5b6109d9600254610a71565b565b60007f01ffc9a7000000000000000000000000000000000000000000000000000000007bffffffffffffffffffffffffffffffffffffffffffffffffffffffff1916827bffffffffffffffffffffffffffffffffffffffffffffffffffffffff1916149050919050565b600080600080610a558686610efd565b925092509250610a658282610f59565b82935050505092915050565b7f000000000000000000000000000000000000000000000000000000000000000073ffffffffffffffffffffffffffffffffffffffff1663ee8ca3b5826040518263ffffffff1660e01b8152600401610aca919061159b565b600060405180830381600087803b158015610ae457600080fd5b505af1158015610af8573d6000803e3d6000fd5b5050505050565b606060405180602001604052806000815250905090565b60608282604051602001610b2b929190611b63565b604051602081830303815290604052905092915050565b606060008383604051602001610b59929190611bc5565b6040516020818303038152906040529050600081604051602001610b7e929190611c36565b60405160208183030381529060405291505092915050565b60007f000000000000000000000000000000000000000000000000000000000000000073ffffffffffffffffffffffffffffffffffffffff16633323b467868686866040518563ffffffff1660e01b8152600401610bf79493929190611ead565b6020604051808303816000875af1158015610c16573d6000803e3d6000fd5b505050506040513d601f19601f82011682018060405250810190610c3a9190611f15565b9050949350505050565b73eeeeeeeeeeeeeeeeeeeeeeeeeeeeeeeeeeeeeeee73ffffffffffffffffffffffffffffffffffffffff168273ffffffffffffffffffffffffffffffffffffffff1603610d535760054614610cce576040517f08c379a0000000000000000000000000000000000000000000000000000000008152600401610cc590611f8e565b60405180910390fd5b737506c12a824d73d9b08564d5afc22c949434755e73ffffffffffffffffffffffffffffffffffffffff166333bb7f9184836040518363ffffffff1660e01b8152600401610d1c9190611571565b6000604051808303818588803b158015610d3557600080fd5b505af1158015610d49573d6000803e3d6000fd5b5050505050610ef8565b608946148015610da25750732791bca1f2de4661ed88a30c99a7a9449aa8417473ffffffffffffffffffffffffffffffffffffffff168273ffffffffffffffffffffffffffffffffffffffff16145b610de1576040517f08c379a0000000000000000000000000000000000000000000000000000000008152600401610dd890611ffa565b60405180910390fd5b8173ffffffffffffffffffffffffffffffffffffffff1663095ea7b3737506c12a824d73d9b08564d5afc22c949434755e856040518363ffffffff1660e01b8152600401610e3092919061201a565b6020604051808303816000875af1158015610e4f573d6000803e3d6000fd5b505050506040513d601f19601f82011682018060405250810190610e73919061206f565b50737506c12a824d73d9b08564d5afc22c949434755e73ffffffffffffffffffffffffffffffffffffffff1663fb0f97a88284866040518463ffffffff1660e01b8152600401610ec59392919061209c565b600060405180830381600087803b158015610edf57600080fd5b505af1158015610ef3573d6000803e3d6000fd5b505050505b505050565b60008060006041845103610f425760008060006020870151925060408701519150606087015160001a9050610f34888285856110bd565b955095509550505050610f52565b60006002855160001b9250925092505b9250925092565b60006003811115610f6d57610f6c611a05565b5b826003811115610f8057610f7f611a05565b5b03156110b95760016003811115610f9a57610f99611a05565b5b826003811115610fad57610fac611a05565b5b03610fe4576040517ff645eedf00000000000000000000000000000000000000000000000000000000815260040160405180910390fd5b60026003811115610ff857610ff7611a05565b5b82600381111561100b5761100a611a05565b5b03611050578060001c6040517ffce698f70000000000000000000000000000000000000000000000000000000081526004016110479190611333565b60405180910390fd5b60038081111561106357611062611a05565b5b82600381111561107657611075611a05565b5b036110b857806040517fd78bce0c0000000000000000000000000000000000000000000000000000000081526004016110af919061159b565b60405180910390fd5b5b5050565b60008060007f7fffffffffffffffffffffffffffffff5d576e7357a4501ddfe92f46681b20a08460001c11156110fd5760006003859250925092506111a7565b60006001888888886040516000815260200160405260405161112294939291906120ef565b6020604051602081039080840390855afa158015611144573d6000803e3d6000fd5b505050602060405103519050600073ffffffffffffffffffffffffffffffffffffffff168173ffffffffffffffffffffffffffffffffffffffff160361119857600060016000801b935093509350506111a7565b8060008060001b935093509350505b9450945094915050565b6000604051905090565b600080fd5b600080fd5b60007fffffffff0000000000000000000000000000000000000000000000000000000082169050919050565b6111fa816111c5565b811461120557600080fd5b50565b600081359050611217816111f1565b92915050565b600060208284031215611233576112326111bb565b5b600061124184828501611208565b91505092915050565b60008115159050919050565b61125f8161124a565b82525050565b600060208201905061127a6000830184611256565b92915050565b600073ffffffffffffffffffffffffffffffffffffffff82169050919050565b6000819050919050565b60006112c56112c06112bb84611280565b6112a0565b611280565b9050919050565b60006112d7826112aa565b9050919050565b60006112e9826112cc565b9050919050565b6112f9816112de565b82525050565b600060208201905061131460008301846112f0565b92915050565b6000819050919050565b61132d8161131a565b82525050565b60006020820190506113486000830184611324565b92915050565b6000819050919050565b6113618161134e565b811461136c57600080fd5b50565b60008135905061137e81611358565b92915050565b600080fd5b600080fd5b6000601f19601f8301169050919050565b7f4e487b7100000000000000000000000000000000000000000000000000000000600052604160045260246000fd5b6113d78261138e565b810181811067ffffffffffffffff821117156113f6576113f561139f565b5b80604052505050565b60006114096111b1565b905061141582826113ce565b919050565b600067ffffffffffffffff8211156114355761143461139f565b5b61143e8261138e565b9050602081019050919050565b82818337600083830152505050565b600061146d6114688461141a565b6113ff565b90508281526020810184848401111561148957611488611389565b5b61149484828561144b565b509392505050565b600082601f8301126114b1576114b0611384565b5b81356114c184826020860161145a565b91505092915050565b600080604083850312156114e1576114e06111bb565b5b60006114ef8582860161136f565b925050602083013567ffffffffffffffff8111156115105761150f6111c0565b5b61151c8582860161149c565b9150509250929050565b61152f816111c5565b82525050565b600060208201905061154a6000830184611526565b92915050565b600061155b82611280565b9050919050565b61156b81611550565b82525050565b60006020820190506115866000830184611562565b92915050565b6115958161134e565b82525050565b60006020820190506115b0600083018461158c565b92915050565b6115bf8161131a565b81146115ca57600080fd5b50565b6000813590506115dc816115b6565b92915050565b6000602082840312156115f8576115f76111bb565b5b6000611606848285016115cd565b91505092915050565b600061161a826112cc565b9050919050565b61162a8161160f565b82525050565b60006020820190506116456000830184611621565b92915050565b600067ffffffffffffffff8211156116665761166561139f565b5b61166f8261138e565b9050602081019050919050565b600061168f61168a8461164b565b6113ff565b9050828152602081018484840111156116ab576116aa611389565b5b6116b684828561144b565b509392505050565b600082601f8301126116d3576116d2611384565b5b81356116e384826020860161167c565b91505092915050565b600080fd5b600080fd5b60008083601f84011261170c5761170b611384565b5b8235905067ffffffffffffffff811115611729576117286116ec565b5b602083019150836001820283011115611745576117446116f1565b5b9250929050565b600080600060408486031215611765576117646111bb565b5b600084013567ffffffffffffffff811115611783576117826111c0565b5b61178f868287016116be565b935050602084013567ffffffffffffffff8111156117b0576117af6111c0565b5b6117bc868287016116f6565b92509250509250925092565b6117d181611550565b81146117dc57600080fd5b50565b6000813590506117ee816117c8565b92915050565b6000806040838503121561180b5761180a6111bb565b5b6000611819858286016115cd565b925050602061182a858286016117df565b9150509250929050565b600082825260208201905092915050565b7f4f6e6c7920646564696361746564206d73672e73656e64657200000000000000600082015250565b600061187b601983611834565b915061188682611845565b602082019050919050565b600060208201905081810360008301526118aa8161186e565b9050919050565b7f4e487b7100000000000000000000000000000000000000000000000000000000600052601160045260246000fd5b60006118eb8261131a565b91506118f68361131a565b925082820190508082111561190e5761190d6118b1565b5b92915050565b7f416c72656164792073746172746564207461736b000000000000000000000000600082015250565b600061194a601483611834565b915061195582611914565b602082019050919050565b600060208201905081810360008301526119798161193d565b9050919050565b6000819050919050565b60006119a56119a061199b84611980565b6112a0565b61131a565b9050919050565b6119b58161198a565b82525050565b60006020820190506119d060008301846119ac565b92915050565b7f4e487b7100000000000000000000000000000000000000000000000000000000600052603260045260246000fd5b7f4e487b7100000000000000000000000000000000000000000000000000000000600052602160045260246000fd5b7f5461736b206e6f74207374617274656400000000000000000000000000000000600082015250565b6000611a6a601083611834565b9150611a7582611a34565b602082019050919050565b60006020820190508181036000830152611a9981611a5d565b9050919050565b600081519050919050565b60005b83811015611ac9578082015181840152602081019050611aae565b60008484015250505050565b6000611ae082611aa0565b611aea8185611834565b9350611afa818560208601611aab565b611b038161138e565b840191505092915050565b600081519050919050565b600082825260208201905092915050565b6000611b3582611b0e565b611b3f8185611b19565b9350611b4f818560208601611aab565b611b588161138e565b840191505092915050565b60006040820190508181036000830152611b7d8185611ad5565b90508181036020830152611b918184611b2a565b90509392505050565b60006fffffffffffffffffffffffffffffffff82169050919050565b611bbf81611b9a565b82525050565b6000604082019050611bda6000830185611bb6565b611be76020830184611bb6565b9392505050565b60048110611bff57611bfe611a05565b5b50565b6000819050611c1082611bee565b919050565b6000611c2082611c02565b9050919050565b611c3081611c15565b82525050565b6000604082019050611c4b6000830185611c27565b8181036020830152611c5d8184611b2a565b90509392505050565b600081519050919050565b600082825260208201905092915050565b6000819050602082019050919050565b60068110611ca357611ca2611a05565b5b50565b6000819050611cb482611c92565b919050565b6000611cc482611ca6565b9050919050565b611cd481611cb9565b82525050565b6000611ce68383611ccb565b60208301905092915050565b6000602082019050919050565b6000611d0a82611c66565b611d148185611c71565b9350611d1f83611c82565b8060005b83811015611d50578151611d378882611cda565b9750611d4283611cf2565b925050600181019050611d23565b5085935050505092915050565b600081519050919050565b600082825260208201905092915050565b6000819050602082019050919050565b600082825260208201905092915050565b6000611da582611b0e565b611daf8185611d89565b9350611dbf818560208601611aab565b611dc88161138e565b840191505092915050565b6000611ddf8383611d9a565b905092915050565b6000602082019050919050565b6000611dff82611d5d565b611e098185611d68565b935083602082028501611e1b85611d79565b8060005b85811015611e575784840389528151611e388582611dd3565b9450611e4383611de7565b925060208a01995050600181019050611e1f565b50829750879550505050505092915050565b60006040830160008301518482036000860152611e868282611cff565b91505060208301518482036020860152611ea08282611df4565b9150508091505092915050565b6000608082019050611ec26000830187611562565b8181036020830152611ed48186611b2a565b90508181036040830152611ee88185611e69565b9050611ef76060830184611562565b95945050505050565b600081519050611f0f81611358565b92915050565b600060208284031215611f2b57611f2a6111bb565b5b6000611f3984828501611f00565b91505092915050565b7f4f6e6c79206465706f73697420455448206f6e20676f65726c69000000000000600082015250565b6000611f78601a83611834565b9150611f8382611f42565b602082019050919050565b60006020820190508181036000830152611fa781611f6b565b9050919050565b7f4f6e6c79206465706f7369742055534443206f6e20706f6c79676f6e00000000600082015250565b6000611fe4601c83611834565b9150611fef82611fae565b602082019050919050565b6000602082019050818103600083015261201381611fd7565b9050919050565b600060408201905061202f6000830185611562565b61203c6020830184611324565b9392505050565b61204c8161124a565b811461205757600080fd5b50565b60008151905061206981612043565b92915050565b600060208284031215612085576120846111bb565b5b60006120938482850161205a565b91505092915050565b60006060820190506120b16000830186611562565b6120be6020830185611562565b6120cb6040830184611324565b949350505050565b600060ff82169050919050565b6120e9816120d3565b82525050565b6000608082019050612104600083018761158c565b61211160208301866120e0565b61211e604083018561158c565b61212b606083018461158c565b9594505050505056fea2646970667358221220e721b798bd17d54dc83382a01269110847e1a97a33a1513be97313b2397421fe64736f6c63430008140033",
  "devdoc": {
    "errors": {
      "ECDSAInvalidSignature()": [
        {
          "details": "The signature derives the `address(0)`."
        }
      ],
      "ECDSAInvalidSignatureLength(uint256)": [
        {
          "details": "The signature has an invalid length."
        }
      ],
      "ECDSAInvalidSignatureS(bytes32)": [
        {
          "details": "The signature has an S value that is in the upper half order."
        }
      ]
    },
    "kind": "dev",
    "methods": {
      "isValidSignature(bytes32,bytes)": {
        "details": "Should return whether the signature provided is valid for the provided data",
        "params": {
          "hash": "Hash of the data to be signed",
          "signature": "Signature byte array associated with _data"
        }
      },
      "supportsInterface(bytes4)": {
        "details": "See {IERC165-supportsInterface}."
      }
    },
    "version": 1
  },
  "userdoc": {
    "kind": "user",
    "methods": {},
    "version": 1
  },
  "storageLayout": {
    "storage": [
      {
        "astId": 3101,
        "contract": "contracts/GelatoSecretsContract.sol:GelatoSecretsContract",
        "label": "count",
        "offset": 0,
        "slot": "0",
        "type": "t_uint256"
      },
      {
        "astId": 3103,
        "contract": "contracts/GelatoSecretsContract.sol:GelatoSecretsContract",
        "label": "lastExecuted",
        "offset": 0,
        "slot": "1",
        "type": "t_uint256"
      },
      {
        "astId": 3105,
        "contract": "contracts/GelatoSecretsContract.sol:GelatoSecretsContract",
        "label": "taskId",
        "offset": 0,
        "slot": "2",
        "type": "t_bytes32"
      },
      {
        "astId": 3117,
        "contract": "contracts/GelatoSecretsContract.sol:GelatoSecretsContract",
        "label": "trustedSigner",
        "offset": 0,
        "slot": "3",
        "type": "t_address"
      }
    ],
    "types": {
      "t_address": {
        "encoding": "inplace",
        "label": "address",
        "numberOfBytes": "20"
      },
      "t_bytes32": {
        "encoding": "inplace",
        "label": "bytes32",
        "numberOfBytes": "32"
      },
      "t_uint256": {
        "encoding": "inplace",
        "label": "uint256",
        "numberOfBytes": "32"
      }
    }
  }
}