{
  "address": "0x5C05f6116Eb4BB9ed03B02AbA4b4016C801ab602",
  "abi": [
    {
      "inputs": [
        {
          "internalType": "address",
          "name": "_automate",
          "type": "address"
        },
        {
          "internalType": "address",
          "name": "_trustedSigner",
          "type": "address"
        }
      ],
      "stateMutability": "nonpayable",
      "type": "constructor"
    },
    {
      "inputs": [],
      "name": "ECDSAInvalidSignature",
      "type": "error"
    },
    {
      "inputs": [
        {
          "internalType": "uint256",
          "name": "length",
          "type": "uint256"
        }
      ],
      "name": "ECDSAInvalidSignatureLength",
      "type": "error"
    },
    {
      "inputs": [
        {
          "internalType": "bytes32",
          "name": "s",
          "type": "bytes32"
        }
      ],
      "name": "ECDSAInvalidSignatureS",
      "type": "error"
    },
    {
      "inputs": [
        {
          "internalType": "address",
          "name": "owner",
          "type": "address"
        }
      ],
      "name": "OwnableInvalidOwner",
      "type": "error"
    },
    {
      "inputs": [
        {
          "internalType": "address",
          "name": "account",
          "type": "address"
        }
      ],
      "name": "OwnableUnauthorizedAccount",
      "type": "error"
    },
    {
      "anonymous": false,
      "inputs": [
        {
          "indexed": false,
          "internalType": "bytes32",
          "name": "taskId",
          "type": "bytes32"
        }
      ],
      "name": "CounterTaskCreated",
      "type": "event"
    },
    {
      "anonymous": false,
      "inputs": [
        {
          "indexed": true,
          "internalType": "address",
          "name": "previousOwner",
          "type": "address"
        },
        {
          "indexed": true,
          "internalType": "address",
          "name": "newOwner",
          "type": "address"
        }
      ],
      "name": "OwnershipTransferred",
      "type": "event"
    },
    {
      "anonymous": false,
      "inputs": [
        {
          "indexed": true,
          "internalType": "address",
          "name": "signer",
          "type": "address"
        }
      ],
      "name": "TrustedSignerAdded",
      "type": "event"
    },
    {
      "anonymous": false,
      "inputs": [
        {
          "indexed": true,
          "internalType": "address",
          "name": "signer",
          "type": "address"
        }
      ],
      "name": "TrustedSignerRemoved",
      "type": "event"
    },
    {
      "inputs": [],
      "name": "INTERVAL",
      "outputs": [
        {
          "internalType": "uint256",
          "name": "",
          "type": "uint256"
        }
      ],
      "stateMutability": "view",
      "type": "function"
    },
    {
      "inputs": [],
      "name": "MAX_COUNT",
      "outputs": [
        {
          "internalType": "uint256",
          "name": "",
          "type": "uint256"
        }
      ],
      "stateMutability": "view",
      "type": "function"
    },
    {
      "inputs": [
        {
          "internalType": "address",
          "name": "_signer",
          "type": "address"
        }
      ],
      "name": "addTrustedSigner",
      "outputs": [],
      "stateMutability": "nonpayable",
      "type": "function"
    },
    {
      "inputs": [],
      "name": "automate",
      "outputs": [
        {
          "internalType": "contract IAutomate",
          "name": "",
          "type": "address"
        }
      ],
      "stateMutability": "view",
      "type": "function"
    },
    {
      "inputs": [],
      "name": "cancelTask",
      "outputs": [],
      "stateMutability": "nonpayable",
      "type": "function"
    },
    {
      "inputs": [],
      "name": "count",
      "outputs": [
        {
          "internalType": "uint256",
          "name": "",
          "type": "uint256"
        }
      ],
      "stateMutability": "view",
      "type": "function"
    },
    {
      "inputs": [
        {
          "internalType": "string",
          "name": "_web3FunctionHash",
          "type": "string"
        },
        {
          "internalType": "bytes",
          "name": "_web3FunctionArgsHex",
          "type": "bytes"
        }
      ],
      "name": "createTask",
      "outputs": [],
      "stateMutability": "nonpayable",
      "type": "function"
    },
    {
      "inputs": [],
      "name": "dedicatedMsgSender",
      "outputs": [
        {
          "internalType": "address",
          "name": "",
          "type": "address"
        }
      ],
      "stateMutability": "view",
      "type": "function"
    },
    {
      "inputs": [
        {
          "internalType": "uint256",
          "name": "_amount",
          "type": "uint256"
        },
        {
          "internalType": "address",
          "name": "_token",
          "type": "address"
        }
      ],
      "name": "depositFunds",
      "outputs": [],
      "stateMutability": "payable",
      "type": "function"
    },
    {
      "inputs": [],
      "name": "gelato1Balance",
      "outputs": [
        {
          "internalType": "contract IGelato1Balance",
          "name": "",
          "type": "address"
        }
      ],
      "stateMutability": "view",
      "type": "function"
    },
    {
      "inputs": [
        {
          "internalType": "uint256",
          "name": "_amount",
          "type": "uint256"
        }
      ],
      "name": "increaseCount",
      "outputs": [],
      "stateMutability": "nonpayable",
      "type": "function"
    },
    {
      "inputs": [
        {
          "internalType": "bytes32",
          "name": "hash",
          "type": "bytes32"
        },
        {
          "internalType": "bytes",
          "name": "signature",
          "type": "bytes"
        }
      ],
      "name": "isValidSignature",
      "outputs": [
        {
          "internalType": "bytes4",
          "name": "",
          "type": "bytes4"
        }
      ],
      "stateMutability": "view",
      "type": "function"
    },
    {
      "inputs": [],
      "name": "lastExecuted",
      "outputs": [
        {
          "internalType": "uint256",
          "name": "",
          "type": "uint256"
        }
      ],
      "stateMutability": "view",
      "type": "function"
    },
    {
      "inputs": [],
      "name": "owner",
      "outputs": [
        {
          "internalType": "address",
          "name": "",
          "type": "address"
        }
      ],
      "stateMutability": "view",
      "type": "function"
    },
    {
      "inputs": [
        {
          "internalType": "address",
          "name": "_signer",
          "type": "address"
        }
      ],
      "name": "removeTrustedSigner",
      "outputs": [],
      "stateMutability": "nonpayable",
      "type": "function"
    },
    {
      "inputs": [],
      "name": "renounceOwnership",
      "outputs": [],
      "stateMutability": "nonpayable",
      "type": "function"
    },
    {
      "inputs": [
        {
          "internalType": "bytes4",
          "name": "interfaceId",
          "type": "bytes4"
        }
      ],
      "name": "supportsInterface",
      "outputs": [
        {
          "internalType": "bool",
          "name": "",
          "type": "bool"
        }
      ],
      "stateMutability": "view",
      "type": "function"
    },
    {
      "inputs": [],
      "name": "taskId",
      "outputs": [
        {
          "internalType": "bytes32",
          "name": "",
          "type": "bytes32"
        }
      ],
      "stateMutability": "view",
      "type": "function"
    },
    {
      "inputs": [
        {
          "internalType": "address",
          "name": "newOwner",
          "type": "address"
        }
      ],
      "name": "transferOwnership",
      "outputs": [],
      "stateMutability": "nonpayable",
      "type": "function"
    },
    {
      "inputs": [
        {
          "internalType": "address",
          "name": "",
          "type": "address"
        }
      ],
      "name": "trustedSigners",
      "outputs": [
        {
          "internalType": "bool",
          "name": "",
          "type": "bool"
        }
      ],
      "stateMutability": "view",
      "type": "function"
    }
  ],
  "transactionHash": "0xc0b4953887eaf3fe0107af8bea5be1a4381ec7352c97f15ad64c7922547219cf",
  "args": [
    "0x2A6C106ae13B558BB9E2Ec64Bd2f1f7BEFF3A5E0",
    "0x23e359eCAB56210f4b8B559218C4d27A85b052b8"
  ],
  "numDeployments": 1,
  "solcInputHash": "68d26146779e62b3074cdf37a922ef7f",
  "bytecode": "0x60e06040523480156200001157600080fd5b506040516200312838038062003128833981810160405281019062000037919062000595565b338280308173ffffffffffffffffffffffffffffffffffffffff1660808173ffffffffffffffffffffffffffffffffffffffff168152505060008273ffffffffffffffffffffffffffffffffffffffff1663573ea5756040518163ffffffff1660e01b8152600401602060405180830381865afa158015620000bd573d6000803e3d6000fd5b505050506040513d601f19601f82011682018060405250810190620000e3919062000621565b90508073ffffffffffffffffffffffffffffffffffffffff1663c415b95c6040518163ffffffff1660e01b8152600401602060405180830381865afa15801562000131573d6000803e3d6000fd5b505050506040513d601f19601f8201168201806040525081019062000157919062000653565b73ffffffffffffffffffffffffffffffffffffffff1660c08173ffffffffffffffffffffffffffffffffffffffff168152505060008373ffffffffffffffffffffffffffffffffffffffff1663cd3d4fb960026040518263ffffffff1660e01b8152600401620001c8919062000705565b602060405180830381865afa158015620001e6573d6000803e3d6000fd5b505050506040513d601f19601f820116820180604052508101906200020c919062000653565b905060008173ffffffffffffffffffffffffffffffffffffffff1663ba1d0ff46040518163ffffffff1660e01b8152600401602060405180830381865afa1580156200025c573d6000803e3d6000fd5b505050506040513d601f19601f8201168201806040525081019062000282919062000653565b90508073ffffffffffffffffffffffffffffffffffffffff1663ded89a7c856040518263ffffffff1660e01b8152600401620002bf919062000733565b6040805180830381865afa158015620002dc573d6000803e3d6000fd5b505050506040513d601f19601f820116820180604052508101906200030291906200078d565b508073ffffffffffffffffffffffffffffffffffffffff1660a09073ffffffffffffffffffffffffffffffffffffffff1681525050505050505050600073ffffffffffffffffffffffffffffffffffffffff168173ffffffffffffffffffffffffffffffffffffffff1603620003b25760006040517f1e4fbdf7000000000000000000000000000000000000000000000000000000008152600401620003a9919062000733565b60405180910390fd5b620003c3816200046760201b60201c565b506001600460008373ffffffffffffffffffffffffffffffffffffffff1673ffffffffffffffffffffffffffffffffffffffff16815260200190815260200160002060006101000a81548160ff0219169083151502179055508073ffffffffffffffffffffffffffffffffffffffff167f5e6c499121c2429a4f2e45ba5c8fb3dcccb94d8e17328edf159386b9b201547b60405160405180910390a25050620007d4565b60008060009054906101000a900473ffffffffffffffffffffffffffffffffffffffff169050816000806101000a81548173ffffffffffffffffffffffffffffffffffffffff021916908373ffffffffffffffffffffffffffffffffffffffff1602179055508173ffffffffffffffffffffffffffffffffffffffff168173ffffffffffffffffffffffffffffffffffffffff167f8be0079c531659141344cd1fd0a4f28419497f9722a3daafe3b4186f6b6457e060405160405180910390a35050565b600080fd5b600073ffffffffffffffffffffffffffffffffffffffff82169050919050565b60006200055d8262000530565b9050919050565b6200056f8162000550565b81146200057b57600080fd5b50565b6000815190506200058f8162000564565b92915050565b60008060408385031215620005af57620005ae6200052b565b5b6000620005bf858286016200057e565b9250506020620005d2858286016200057e565b9150509250929050565b6000620005e98262000530565b9050919050565b620005fb81620005dc565b81146200060757600080fd5b50565b6000815190506200061b81620005f0565b92915050565b6000602082840312156200063a57620006396200052b565b5b60006200064a848285016200060a565b91505092915050565b6000602082840312156200066c576200066b6200052b565b5b60006200067c848285016200057e565b91505092915050565b7f4e487b7100000000000000000000000000000000000000000000000000000000600052602160045260246000fd5b60068110620006c857620006c762000685565b5b50565b6000819050620006db82620006b4565b919050565b6000620006ed82620006cb565b9050919050565b620006ff81620006e0565b82525050565b60006020820190506200071c6000830184620006f4565b92915050565b6200072d8162000550565b82525050565b60006020820190506200074a600083018462000722565b92915050565b60008115159050919050565b620007678162000750565b81146200077357600080fd5b50565b60008151905062000787816200075c565b92915050565b60008060408385031215620007a757620007a66200052b565b5b6000620007b7858286016200057e565b9250506020620007ca8582860162000776565b9150509250929050565b60805160a05160c0516129126200081660003960005050600081816105bc01526107880152600081816104f101528181610fde01526111c901526129126000f3fe60806040526004361061011f5760003560e01c8063715018a6116100a05780638da5cb5b116100645780638da5cb5b146103b1578063f2fde38b146103dc578063f777768814610405578063f785de2314610442578063f7d9ae731461045e5761011f565b8063715018a6146102f257806377163c1d146103095780637d66527b146103345780638136659f1461035d57806389facb20146103865761011f565b806328f150eb116100e757806328f150eb1461021f5780633322b23d1461024a5780633fff987b1461027557806346d4adf21461029e57806357fb1d67146102c75761011f565b806301ffc9a714610124578063049aacfe1461016157806306661abd1461018c5780631626ba7e146101b75780631c15ff77146101f4575b600080fd5b34801561013057600080fd5b5061014b60048036038101906101469190611854565b610475565b604051610158919061189c565b60405180910390f35b34801561016d57600080fd5b506101766104ef565b6040516101839190611936565b60405180910390f35b34801561019857600080fd5b506101a1610513565b6040516101ae919061196a565b60405180910390f35b3480156101c357600080fd5b506101de60048036038101906101d99190611b01565b610519565b6040516101eb9190611b6c565b60405180910390f35b34801561020057600080fd5b506102096105b4565b604051610216919061196a565b60405180910390f35b34801561022b57600080fd5b506102346105ba565b6040516102419190611ba8565b60405180910390f35b34801561025657600080fd5b5061025f6105de565b60405161026c9190611bd2565b60405180910390f35b34801561028157600080fd5b5061029c60048036038101906102979190611c19565b6105e4565b005b3480156102aa57600080fd5b506102c560048036038101906102c09190611c72565b610786565b005b3480156102d357600080fd5b506102dc61086b565b6040516102e99190611cc0565b60405180910390f35b3480156102fe57600080fd5b50610307610883565b005b34801561031557600080fd5b5061031e610897565b60405161032b919061196a565b60405180910390f35b34801561034057600080fd5b5061035b60048036038101906103569190611c19565b61089c565b005b34801561036957600080fd5b50610384600480360381019061037f9190611ddc565b6109ce565b005b34801561039257600080fd5b5061039b610d4f565b6040516103a8919061196a565b60405180910390f35b3480156103bd57600080fd5b506103c6610d56565b6040516103d39190611ba8565b60405180910390f35b3480156103e857600080fd5b5061040360048036038101906103fe9190611c19565b610d7f565b005b34801561041157600080fd5b5061042c60048036038101906104279190611c19565b610e05565b604051610439919061189c565b60405180910390f35b61045c60048036038101906104579190611e58565b610e25565b005b34801561046a57600080fd5b50610473610e34565b005b60007f1626ba7e000000000000000000000000000000000000000000000000000000007bffffffffffffffffffffffffffffffffffffffffffffffffffffffff1916827bffffffffffffffffffffffffffffffffffffffffffffffffffffffff191614806104e857506104e782610e89565b5b9050919050565b7f000000000000000000000000000000000000000000000000000000000000000081565b60015481565b60008061052584610ef3565b9050600061053c8483610f2990919063ffffffff16565b9050600460008273ffffffffffffffffffffffffffffffffffffffff1673ffffffffffffffffffffffffffffffffffffffff16815260200190815260200160002060009054906101000a900460ff16156105a157631626ba7e60e01b925050506105ae565b63ffffffff60e01b925050505b92915050565b60025481565b7f000000000000000000000000000000000000000000000000000000000000000081565b60035481565b6105ec610f55565b600073ffffffffffffffffffffffffffffffffffffffff168173ffffffffffffffffffffffffffffffffffffffff160361065b576040517f08c379a000000000000000000000000000000000000000000000000000000000815260040161065290611ef5565b60405180910390fd5b600460008273ffffffffffffffffffffffffffffffffffffffff1673ffffffffffffffffffffffffffffffffffffffff16815260200190815260200160002060009054906101000a900460ff16156106e8576040517f08c379a00000000000000000000000000000000000000000000000000000000081526004016106df90611f61565b60405180910390fd5b6001600460008373ffffffffffffffffffffffffffffffffffffffff1673ffffffffffffffffffffffffffffffffffffffff16815260200190815260200160002060006101000a81548160ff0219169083151502179055508073ffffffffffffffffffffffffffffffffffffffff167f5e6c499121c2429a4f2e45ba5c8fb3dcccb94d8e17328edf159386b9b201547b60405160405180910390a250565b7f000000000000000000000000000000000000000000000000000000000000000073ffffffffffffffffffffffffffffffffffffffff163373ffffffffffffffffffffffffffffffffffffffff1614610814576040517f08c379a000000000000000000000000000000000000000000000000000000000815260040161080b90611fcd565b60405180910390fd5b600081600154610824919061201c565b90506005811061084657610839600354610fdc565b6000600181905550610867565b8160016000828254610858919061201c565b92505081905550426002819055505b5050565b737506c12a824d73d9b08564d5afc22c949434755e81565b61088b610f55565b610895600061106a565b565b600581565b6108a4610f55565b600460008273ffffffffffffffffffffffffffffffffffffffff1673ffffffffffffffffffffffffffffffffffffffff16815260200190815260200160002060009054906101000a900460ff16610930576040517f08c379a00000000000000000000000000000000000000000000000000000000081526004016109279061209c565b60405180910390fd5b6000600460008373ffffffffffffffffffffffffffffffffffffffff1673ffffffffffffffffffffffffffffffffffffffff16815260200190815260200160002060006101000a81548160ff0219169083151502179055508073ffffffffffffffffffffffffffffffffffffffff167f31388f0bd47c1c732ef24a560dd8fc1420c33b89dfbb99d7fd61ffce864e71e360405160405180910390a250565b600080191660035414610a16576040517f08c379a0000000000000000000000000000000000000000000000000000000008152600401610a0d90612108565b60405180910390fd5b60003073ffffffffffffffffffffffffffffffffffffffff166346d4adf26001604051602401610a469190612163565b604051602081830303815290604052915060e01b6020820180517bffffffffffffffffffffffffffffffffffffffffffffffffffffffff8381831617835250505050905060006040518060400160405280600367ffffffffffffffff811115610ab257610ab16119d6565b5b604051908082528060200260200182016040528015610ae05781602001602082028036833780820191505090505b508152602001600367ffffffffffffffff811115610b0157610b006119d6565b5b604051908082528060200260200182016040528015610b3457816020015b6060815260200190600190039081610b1f5790505b50815250905060028160000151600081518110610b5457610b5361217e565b5b60200260200101906005811115610b6e57610b6d6121ad565b5b90816005811115610b8257610b816121ad565b5b8152505060048160000151600181518110610ba057610b9f61217e565b5b60200260200101906005811115610bba57610bb96121ad565b5b90816005811115610bce57610bcd6121ad565b5b8152505060058160000151600281518110610bec57610beb61217e565b5b60200260200101906005811115610c0657610c056121ad565b5b90816005811115610c1a57610c196121ad565b5b81525050610c2661112e565b8160200151600081518110610c3e57610c3d61217e565b5b6020026020010181905250610c978585858080601f016020809104026020016040519081016040528093929190818152602001838380828437600081840152601f19601f82011690508083019250505050505050611145565b8160200151600181518110610caf57610cae61217e565b5b6020026020010181905250610cd562124f8042610ccc919061201c565b62124f80611171565b8160200151600281518110610ced57610cec61217e565b5b60200260200101819052506000610d0730848460006111c5565b9050806003819055507fa585557108354aa3685e5fe0424ad88ab5bcabc78119a3d599ae901ccb19999381604051610d3f9190611bd2565b60405180910390a1505050505050565b62124f8081565b60008060009054906101000a900473ffffffffffffffffffffffffffffffffffffffff16905090565b610d87610f55565b600073ffffffffffffffffffffffffffffffffffffffff168173ffffffffffffffffffffffffffffffffffffffff1603610df95760006040517f1e4fbdf7000000000000000000000000000000000000000000000000000000008152600401610df09190611ba8565b60405180910390fd5b610e028161106a565b50565b60046020528060005260406000206000915054906101000a900460ff1681565b610e30828230611273565b5050565b600080191660035403610e7c576040517f08c379a0000000000000000000000000000000000000000000000000000000008152600401610e7390612228565b60405180910390fd5b610e87600354610fdc565b565b60007f01ffc9a7000000000000000000000000000000000000000000000000000000007bffffffffffffffffffffffffffffffffffffffffffffffffffffffff1916827bffffffffffffffffffffffffffffffffffffffffffffffffffffffff1916149050919050565b60007f19457468657265756d205369676e6564204d6573736167653a0a33320000000060005281601c52603c6000209050919050565b600080600080610f39868661152c565b925092509250610f498282611588565b82935050505092915050565b610f5d6116ec565b73ffffffffffffffffffffffffffffffffffffffff16610f7b610d56565b73ffffffffffffffffffffffffffffffffffffffff1614610fda57610f9e6116ec565b6040517f118cdaa7000000000000000000000000000000000000000000000000000000008152600401610fd19190611ba8565b60405180910390fd5b565b7f000000000000000000000000000000000000000000000000000000000000000073ffffffffffffffffffffffffffffffffffffffff1663ee8ca3b5826040518263ffffffff1660e01b81526004016110359190611bd2565b600060405180830381600087803b15801561104f57600080fd5b505af1158015611063573d6000803e3d6000fd5b5050505050565b60008060009054906101000a900473ffffffffffffffffffffffffffffffffffffffff169050816000806101000a81548173ffffffffffffffffffffffffffffffffffffffff021916908373ffffffffffffffffffffffffffffffffffffffff1602179055508173ffffffffffffffffffffffffffffffffffffffff168173ffffffffffffffffffffffffffffffffffffffff167f8be0079c531659141344cd1fd0a4f28419497f9722a3daafe3b4186f6b6457e060405160405180910390a35050565b606060405180602001604052806000815250905090565b6060828260405160200161115a92919061230b565b604051602081830303815290604052905092915050565b60606000838360405160200161118892919061236d565b60405160208183030381529060405290506000816040516020016111ad9291906123de565b60405160208183030381529060405291505092915050565b60007f000000000000000000000000000000000000000000000000000000000000000073ffffffffffffffffffffffffffffffffffffffff16633323b467868686866040518563ffffffff1660e01b81526004016112269493929190612655565b6020604051808303816000875af1158015611245573d6000803e3d6000fd5b505050506040513d601f19601f8201168201806040525081019061126991906126bd565b9050949350505050565b73eeeeeeeeeeeeeeeeeeeeeeeeeeeeeeeeeeeeeeee73ffffffffffffffffffffffffffffffffffffffff168273ffffffffffffffffffffffffffffffffffffffff160361138257600546146112fd576040517f08c379a00000000000000000000000000000000000000000000000000000000081526004016112f490612736565b60405180910390fd5b737506c12a824d73d9b08564d5afc22c949434755e73ffffffffffffffffffffffffffffffffffffffff166333bb7f9184836040518363ffffffff1660e01b815260040161134b9190611ba8565b6000604051808303818588803b15801561136457600080fd5b505af1158015611378573d6000803e3d6000fd5b5050505050611527565b6089461480156113d15750732791bca1f2de4661ed88a30c99a7a9449aa8417473ffffffffffffffffffffffffffffffffffffffff168273ffffffffffffffffffffffffffffffffffffffff16145b611410576040517f08c379a0000000000000000000000000000000000000000000000000000000008152600401611407906127a2565b60405180910390fd5b8173ffffffffffffffffffffffffffffffffffffffff1663095ea7b3737506c12a824d73d9b08564d5afc22c949434755e856040518363ffffffff1660e01b815260040161145f9291906127c2565b6020604051808303816000875af115801561147e573d6000803e3d6000fd5b505050506040513d601f19601f820116820180604052508101906114a29190612817565b50737506c12a824d73d9b08564d5afc22c949434755e73ffffffffffffffffffffffffffffffffffffffff1663fb0f97a88284866040518463ffffffff1660e01b81526004016114f493929190612844565b600060405180830381600087803b15801561150e57600080fd5b505af1158015611522573d6000803e3d6000fd5b505050505b505050565b600080600060418451036115715760008060006020870151925060408701519150606087015160001a9050611563888285856116f4565b955095509550505050611581565b60006002855160001b9250925092505b9250925092565b6000600381111561159c5761159b6121ad565b5b8260038111156115af576115ae6121ad565b5b03156116e857600160038111156115c9576115c86121ad565b5b8260038111156115dc576115db6121ad565b5b03611613576040517ff645eedf00000000000000000000000000000000000000000000000000000000815260040160405180910390fd5b60026003811115611627576116266121ad565b5b82600381111561163a576116396121ad565b5b0361167f578060001c6040517ffce698f7000000000000000000000000000000000000000000000000000000008152600401611676919061196a565b60405180910390fd5b600380811115611692576116916121ad565b5b8260038111156116a5576116a46121ad565b5b036116e757806040517fd78bce0c0000000000000000000000000000000000000000000000000000000081526004016116de9190611bd2565b60405180910390fd5b5b5050565b600033905090565b60008060007f7fffffffffffffffffffffffffffffff5d576e7357a4501ddfe92f46681b20a08460001c11156117345760006003859250925092506117de565b6000600188888888604051600081526020016040526040516117599493929190612897565b6020604051602081039080840390855afa15801561177b573d6000803e3d6000fd5b505050602060405103519050600073ffffffffffffffffffffffffffffffffffffffff168173ffffffffffffffffffffffffffffffffffffffff16036117cf57600060016000801b935093509350506117de565b8060008060001b935093509350505b9450945094915050565b6000604051905090565b600080fd5b600080fd5b60007fffffffff0000000000000000000000000000000000000000000000000000000082169050919050565b611831816117fc565b811461183c57600080fd5b50565b60008135905061184e81611828565b92915050565b60006020828403121561186a576118696117f2565b5b60006118788482850161183f565b91505092915050565b60008115159050919050565b61189681611881565b82525050565b60006020820190506118b1600083018461188d565b92915050565b600073ffffffffffffffffffffffffffffffffffffffff82169050919050565b6000819050919050565b60006118fc6118f76118f2846118b7565b6118d7565b6118b7565b9050919050565b600061190e826118e1565b9050919050565b600061192082611903565b9050919050565b61193081611915565b82525050565b600060208201905061194b6000830184611927565b92915050565b6000819050919050565b61196481611951565b82525050565b600060208201905061197f600083018461195b565b92915050565b6000819050919050565b61199881611985565b81146119a357600080fd5b50565b6000813590506119b58161198f565b92915050565b600080fd5b600080fd5b6000601f19601f8301169050919050565b7f4e487b7100000000000000000000000000000000000000000000000000000000600052604160045260246000fd5b611a0e826119c5565b810181811067ffffffffffffffff82111715611a2d57611a2c6119d6565b5b80604052505050565b6000611a406117e8565b9050611a4c8282611a05565b919050565b600067ffffffffffffffff821115611a6c57611a6b6119d6565b5b611a75826119c5565b9050602081019050919050565b82818337600083830152505050565b6000611aa4611a9f84611a51565b611a36565b905082815260208101848484011115611ac057611abf6119c0565b5b611acb848285611a82565b509392505050565b600082601f830112611ae857611ae76119bb565b5b8135611af8848260208601611a91565b91505092915050565b60008060408385031215611b1857611b176117f2565b5b6000611b26858286016119a6565b925050602083013567ffffffffffffffff811115611b4757611b466117f7565b5b611b5385828601611ad3565b9150509250929050565b611b66816117fc565b82525050565b6000602082019050611b816000830184611b5d565b92915050565b6000611b92826118b7565b9050919050565b611ba281611b87565b82525050565b6000602082019050611bbd6000830184611b99565b92915050565b611bcc81611985565b82525050565b6000602082019050611be76000830184611bc3565b92915050565b611bf681611b87565b8114611c0157600080fd5b50565b600081359050611c1381611bed565b92915050565b600060208284031215611c2f57611c2e6117f2565b5b6000611c3d84828501611c04565b91505092915050565b611c4f81611951565b8114611c5a57600080fd5b50565b600081359050611c6c81611c46565b92915050565b600060208284031215611c8857611c876117f2565b5b6000611c9684828501611c5d565b91505092915050565b6000611caa82611903565b9050919050565b611cba81611c9f565b82525050565b6000602082019050611cd56000830184611cb1565b92915050565b600067ffffffffffffffff821115611cf657611cf56119d6565b5b611cff826119c5565b9050602081019050919050565b6000611d1f611d1a84611cdb565b611a36565b905082815260208101848484011115611d3b57611d3a6119c0565b5b611d46848285611a82565b509392505050565b600082601f830112611d6357611d626119bb565b5b8135611d73848260208601611d0c565b91505092915050565b600080fd5b600080fd5b60008083601f840112611d9c57611d9b6119bb565b5b8235905067ffffffffffffffff811115611db957611db8611d7c565b5b602083019150836001820283011115611dd557611dd4611d81565b5b9250929050565b600080600060408486031215611df557611df46117f2565b5b600084013567ffffffffffffffff811115611e1357611e126117f7565b5b611e1f86828701611d4e565b935050602084013567ffffffffffffffff811115611e4057611e3f6117f7565b5b611e4c86828701611d86565b92509250509250925092565b60008060408385031215611e6f57611e6e6117f2565b5b6000611e7d85828601611c5d565b9250506020611e8e85828601611c04565b9150509250929050565b600082825260208201905092915050565b7f496e76616c696420616464726573730000000000000000000000000000000000600082015250565b6000611edf600f83611e98565b9150611eea82611ea9565b602082019050919050565b60006020820190508181036000830152611f0e81611ed2565b9050919050565b7f5369676e657220616c7265616479207472757374656400000000000000000000600082015250565b6000611f4b601683611e98565b9150611f5682611f15565b602082019050919050565b60006020820190508181036000830152611f7a81611f3e565b9050919050565b7f4f6e6c7920646564696361746564206d73672e73656e64657200000000000000600082015250565b6000611fb7601983611e98565b9150611fc282611f81565b602082019050919050565b60006020820190508181036000830152611fe681611faa565b9050919050565b7f4e487b7100000000000000000000000000000000000000000000000000000000600052601160045260246000fd5b600061202782611951565b915061203283611951565b925082820190508082111561204a57612049611fed565b5b92915050565b7f5369676e6572206e6f7420666f756e6400000000000000000000000000000000600082015250565b6000612086601083611e98565b915061209182612050565b602082019050919050565b600060208201905081810360008301526120b581612079565b9050919050565b7f416c72656164792073746172746564207461736b000000000000000000000000600082015250565b60006120f2601483611e98565b91506120fd826120bc565b602082019050919050565b60006020820190508181036000830152612121816120e5565b9050919050565b6000819050919050565b600061214d61214861214384612128565b6118d7565b611951565b9050919050565b61215d81612132565b82525050565b60006020820190506121786000830184612154565b92915050565b7f4e487b7100000000000000000000000000000000000000000000000000000000600052603260045260246000fd5b7f4e487b7100000000000000000000000000000000000000000000000000000000600052602160045260246000fd5b7f5461736b206e6f74207374617274656400000000000000000000000000000000600082015250565b6000612212601083611e98565b915061221d826121dc565b602082019050919050565b6000602082019050818103600083015261224181612205565b9050919050565b600081519050919050565b60005b83811015612271578082015181840152602081019050612256565b60008484015250505050565b600061228882612248565b6122928185611e98565b93506122a2818560208601612253565b6122ab816119c5565b840191505092915050565b600081519050919050565b600082825260208201905092915050565b60006122dd826122b6565b6122e781856122c1565b93506122f7818560208601612253565b612300816119c5565b840191505092915050565b60006040820190508181036000830152612325818561227d565b9050818103602083015261233981846122d2565b90509392505050565b60006fffffffffffffffffffffffffffffffff82169050919050565b61236781612342565b82525050565b6000604082019050612382600083018561235e565b61238f602083018461235e565b9392505050565b600481106123a7576123a66121ad565b5b50565b60008190506123b882612396565b919050565b60006123c8826123aa565b9050919050565b6123d8816123bd565b82525050565b60006040820190506123f360008301856123cf565b818103602083015261240581846122d2565b90509392505050565b600081519050919050565b600082825260208201905092915050565b6000819050602082019050919050565b6006811061244b5761244a6121ad565b5b50565b600081905061245c8261243a565b919050565b600061246c8261244e565b9050919050565b61247c81612461565b82525050565b600061248e8383612473565b60208301905092915050565b6000602082019050919050565b60006124b28261240e565b6124bc8185612419565b93506124c78361242a565b8060005b838110156124f85781516124df8882612482565b97506124ea8361249a565b9250506001810190506124cb565b5085935050505092915050565b600081519050919050565b600082825260208201905092915050565b6000819050602082019050919050565b600082825260208201905092915050565b600061254d826122b6565b6125578185612531565b9350612567818560208601612253565b612570816119c5565b840191505092915050565b60006125878383612542565b905092915050565b6000602082019050919050565b60006125a782612505565b6125b18185612510565b9350836020820285016125c385612521565b8060005b858110156125ff57848403895281516125e0858261257b565b94506125eb8361258f565b925060208a019950506001810190506125c7565b50829750879550505050505092915050565b6000604083016000830151848203600086015261262e82826124a7565b91505060208301518482036020860152612648828261259c565b9150508091505092915050565b600060808201905061266a6000830187611b99565b818103602083015261267c81866122d2565b905081810360408301526126908185612611565b905061269f6060830184611b99565b95945050505050565b6000815190506126b78161198f565b92915050565b6000602082840312156126d3576126d26117f2565b5b60006126e1848285016126a8565b91505092915050565b7f4f6e6c79206465706f73697420455448206f6e20676f65726c69000000000000600082015250565b6000612720601a83611e98565b915061272b826126ea565b602082019050919050565b6000602082019050818103600083015261274f81612713565b9050919050565b7f4f6e6c79206465706f7369742055534443206f6e20706f6c79676f6e00000000600082015250565b600061278c601c83611e98565b915061279782612756565b602082019050919050565b600060208201905081810360008301526127bb8161277f565b9050919050565b60006040820190506127d76000830185611b99565b6127e4602083018461195b565b9392505050565b6127f481611881565b81146127ff57600080fd5b50565b600081519050612811816127eb565b92915050565b60006020828403121561282d5761282c6117f2565b5b600061283b84828501612802565b91505092915050565b60006060820190506128596000830186611b99565b6128666020830185611b99565b612873604083018461195b565b949350505050565b600060ff82169050919050565b6128918161287b565b82525050565b60006080820190506128ac6000830187611bc3565b6128b96020830186612888565b6128c66040830185611bc3565b6128d36060830184611bc3565b9594505050505056fea2646970667358221220118c50e9aba4f4ec47f78049179ed92b443aa2d41fc16b7826aa91314b1da6e964736f6c63430008140033",
  "devdoc": {
    "errors": {
      "ECDSAInvalidSignature()": [
        {
          "details": "The signature derives the `address(0)`."
        }
      ],
      "ECDSAInvalidSignatureLength(uint256)": [
        {
          "details": "The signature has an invalid length."
        }
      ],
      "ECDSAInvalidSignatureS(bytes32)": [
        {
          "details": "The signature has an S value that is in the upper half order."
        }
      ],
      "OwnableInvalidOwner(address)": [
        {
          "details": "The owner is not a valid owner account. (eg. `address(0)`)"
        }
      ],
      "OwnableUnauthorizedAccount(address)": [
        {
          "details": "The caller account is not authorized to perform an operation."
        }
      ]
    },
    "kind": "dev",
    "methods": {
      "isValidSignature(bytes32,bytes)": {
        "details": "Should return whether the signature provided is valid for the provided data",
        "params": {
          "hash": "Hash of the data to be signed",
          "signature": "Signature byte array associated with _data"
        }
      },
      "owner()": {
        "details": "Returns the address of the current owner."
      },
      "renounceOwnership()": {
        "details": "Leaves the contract without owner. It will not be possible to call `onlyOwner` functions. Can only be called by the current owner. NOTE: Renouncing ownership will leave the contract without an owner, thereby disabling any functionality that is only available to the owner."
      },
      "supportsInterface(bytes4)": {
        "details": "See {IERC165-supportsInterface}."
      },
      "transferOwnership(address)": {
        "details": "Transfers ownership of the contract to a new account (`newOwner`). Can only be called by the current owner."
      }
    },
    "version": 1
  },
  "userdoc": {
    "kind": "user",
    "methods": {},
    "version": 1
  },
  "storageLayout": {
    "storage": [
      {
        "astId": 8,
        "contract": "contracts/GelatoSecretContractNew.sol:GelatoSecretsContractNew",
        "label": "_owner",
        "offset": 0,
        "slot": "0",
        "type": "t_address"
      },
      {
        "astId": 4163,
        "contract": "contracts/GelatoSecretContractNew.sol:GelatoSecretsContractNew",
        "label": "count",
        "offset": 0,
        "slot": "1",
        "type": "t_uint256"
      },
      {
        "astId": 4165,
        "contract": "contracts/GelatoSecretContractNew.sol:GelatoSecretsContractNew",
        "label": "lastExecuted",
        "offset": 0,
        "slot": "2",
        "type": "t_uint256"
      },
      {
        "astId": 4167,
        "contract": "contracts/GelatoSecretContractNew.sol:GelatoSecretsContractNew",
        "label": "taskId",
        "offset": 0,
        "slot": "3",
        "type": "t_bytes32"
      },
      {
        "astId": 4181,
        "contract": "contracts/GelatoSecretContractNew.sol:GelatoSecretsContractNew",
        "label": "trustedSigners",
        "offset": 0,
        "slot": "4",
        "type": "t_mapping(t_address,t_bool)"
      }
    ],
    "types": {
      "t_address": {
        "encoding": "inplace",
        "label": "address",
        "numberOfBytes": "20"
      },
      "t_bool": {
        "encoding": "inplace",
        "label": "bool",
        "numberOfBytes": "1"
      },
      "t_bytes32": {
        "encoding": "inplace",
        "label": "bytes32",
        "numberOfBytes": "32"
      },
      "t_mapping(t_address,t_bool)": {
        "encoding": "mapping",
        "key": "t_address",
        "label": "mapping(address => bool)",
        "numberOfBytes": "32",
        "value": "t_bool"
      },
      "t_uint256": {
        "encoding": "inplace",
        "label": "uint256",
        "numberOfBytes": "32"
      }
    }
  }
}